:020000040000FA
:100000000040002071010000690100006D01000046
:1000100000000000000000000000000000000000E0
:100020000000000000000000000000006901000066
:1000300000000000000000006901000069010000EC
:100040006901000069010000690100006901000008
:1000500069010000690100006901000069010000F8
:1000600069010000690100000000000000000000BC
:100070000000000000000000000000000000000080
:100080000000000000000000000000000000000070
:100090000000000000000000000000000000000060
:1000A0000000000000000000000000000000000050
:1000B0000000000000000000000000000000000040
:1000C00000F002F800F02FF80CA030C8083824180F
:1000D0002D18671EA246AB4654465D46AC4201D180
:1000E00000F021F87E460F3EB6460FCC0126334283
:1000F00000D0FB1A3343A246AB461847F400000079
:1001000004010000103A02D378C878C1FAD8520727
:1001100001D330C830C101D504680C6070471FB5E9
:100120001FBD10B510BD04488546FFF7F8FF00F06D
:100130002BF800F009F800000040002003B4FFF79E
:10014000F0FF03BC00F00AF810B50446C046C046F4
:100150002046FFF7F3FF10BD70470000014918204B
:10016000ABBEFEE726000200FFE7FEE7FFE7FEE783
:1001700000F002F8FFF7A4FF014902480860704749
:100180000000002040787D0186B000910246009872
:100190000021059104920390012082070292029AA5
:1001A000D160029A01021161029A5161029A916131
:1001B000029A05210902D161029A10211162029A64
:1001C0008F215162029A40219162029908607D203C
:1001D000C0000190FFE70198401E0190002801D067
:1001E000FFE7F8E7029901200860FFE7FEE700005B
:1001F00000020000000000200400000004010000D4
:0402000040787D01C4
:04000005000000C136
:00000001FF
