:020000040000FA
:100000000020002071010000690100006D01000066
:1000100000000000000000000000000000000000E0
:100020000000000000000000000000006901000066
:1000300000000000000000006901000069010000EC
:100040006901000069010000690100006901000008
:1000500069010000690100006901000069010000F8
:1000600069010000690100000000000000000000BC
:100070000000000000000000000000000000000080
:100080000000000000000000000000000000000070
:100090000000000000000000000000000000000060
:1000A0000000000000000000000000000000000050
:1000B0000000000000000000000000000000000040
:1000C00000F002F800F02FF80CA030C8083824180F
:1000D0002D18671EA246AB4654465D46AC4201D180
:1000E00000F021F87E460F3EB6460FCC0126334283
:1000F00000D0FB1A3343A246AB4618474C01000020
:100100005C010000103A02D378C878C1FAD85207CF
:1001100001D330C830C101D504680C6070471FB5E9
:100120001FBD10B510BD04488546FFF7F8FF00F06D
:1001300083F800F009F800000020002003B4FFF766
:10014000F0FF03BC00F00AF810B50446C046C046F4
:100150002046FFF7F3FF10BD70470000014918204B
:10016000ABBEFEE726000200FFE7FEE7FFE7FEE783
:1001700000F002F8FFF7A4FF014902480860704749
:100180000000002040787D0185B0274804900120C0
:1001900081070391039A0021D160039B234A1A61CE
:1001A000039B5A61039B9A61039B214ADA61039B7B
:1001B00008221A62039BC0225A62039B40229A6261
:1001C000039B0A221A63039B05225A630291194971
:1001D000019169460870FFE768460078C00700286B
:1001E00004D0FFE703990120086003E0039902208F
:1001F0000860FFE701980290FFE70298401E029016
:10020000002801D0FFE7F8E768460078C00700281B
:1002100004D0FFE703990120086003E0039902205E
:100220000860FFE7D8E7C0460010004090D0030008
:10023000809FD50000C2EB0B80B582B000200190FA
:10024000FFF7A2FF02B080BD5802000000000020AE
:0C025000040000000401000040787D0163
:04000005000000C136
:00000001FF
