:020000040000FA
:100000000080002071010000690100006D01000006
:1000100000000000000000000000000000000000E0
:100020000000000000000000000000006901000066
:1000300000000000000000006901000069010000EC
:100040006901000069010000690100006901000008
:1000500069010000690100006901000069010000F8
:1000600069010000690100000000000000000000BC
:100070000000000000000000000000000000000080
:100080000000000000000000000000000000000070
:100090000000000000000000000000000000000060
:1000A0000000000000000000000000000000000050
:1000B0000000000000000000000000000000000040
:1000C00000F002F800F02FF80CA030C8083824180F
:1000D0002D18671EA246AB4654465D46AC4201D180
:1000E00000F021F87E460F3EB6460FCC0126334283
:1000F00000D0FB1A3343A246AB461847C8000000A5
:10010000D8000000103A02D378C878C1FAD8520754
:1001100001D330C830C101D504680C6070471FB5E9
:100120001FBD10B510BD04488546FFF7F8FF00F06D
:100130002BF800F009F800000080002003B4FFF75E
:10014000F0FF03BC00F00AF810B50446C046C046F4
:100150002046FFF7F3FF10BD70470000014918204B
:10016000ABBEFEE726000200FFE7FEE7FFE7FEE783
:1001700000F002F8FFF7A4FF014902480860704749
:100180000000002040787D0183B0002002900190A3
:100190000090FFE701980949884201D8FFE708E08D
:1001A00000984000401C00900098054909680860CC
:1001B000FFE70198401C0190ECE7C0463F4B4C0024
:1001C00004000020D401000000000020080000000E
:0C01D0000401000040787D0100000040A8
:04000005000000C136
:00000001FF
