:020000040000FA
:1000000000000120DB020000D3020000D702000044
:1000100000000000000000000000000000000000E0
:10002000000000000000000000000000D3020000FB
:100030000000000000000000D3020000D302000016
:10004000D3020000D3020000D3020000D30200005C
:10005000D3020000D3020000D3020000D30200004C
:10006000D3020000D30200000000000000000000E6
:100070000000000000000000000000000000000080
:100080000000000000000000000000000000000070
:100090000000000000000000000000000000000060
:1000A0000000000000000000000000000000000050
:1000B0000000000000000000000000000000000040
:1000C00000F002F800F02FF80CA030C8083824180F
:1000D0002D18671EA246AB4654465D46AC4201D180
:1000E00000F021F87E460F3EB6460FCC0126334283
:1000F00000D0FB1A3343A246AB4618474802000023
:1001000058020000103A02D378C878C1FAD85207D2
:1001100001D330C830C101D504680C6070471FB5E9
:100120001FBD10B510BD04488546FFF7F8FF00F06D
:10013000E1F800F0BFF800000000012003B4FFF771
:10014000F0FF03BC00F0BEF8002203098B422CD361
:10015000030A8B4211D300239C464EE003460B4317
:100160003CD4002243088B4231D303098B421CD379
:10017000030A8B4201D394463FE0C3098B4201D36B
:10018000CB01C01A524183098B4201D38B01C01AA3
:10019000524143098B4201D34B01C01A524103091A
:1001A0008B4201D30B01C01A5241C3088B4201D3C9
:1001B000CB00C01A524183088B4201D38B00C01A76
:1001C000524143088B4201D34B00C01A5241411A9D
:1001D00000D201465241104670475DE0CA0F00D080
:1001E0004942031000D3404253409C460022030979
:1001F0008B422DD3030A8B4212D38901FC2212BAFF
:10020000030A8B420CD3890192118B4208D38901D6
:1002100092118B4204D389013AD0921100E08909EE
:10022000C3098B4201D3CB01C01A524183098B42CF
:1002300001D38B01C01A524143098B4201D34B01B8
:10024000C01A524103098B4201D30B01C01A52411B
:10025000C3088B4201D3CB00C01A524183088B42A2
:1002600001D38B00C01A5241D9D243088B4201D32B
:100270004B00C01A5241411A00D201465241104669
:1002800063465B1001D34042002B00D549427047C2
:1002900063465B1000D3404201B50549002802DCEB
:1002A000491C084000E00846C046C04602BD00BFE9
:1002B000FFFFFF7F10B50446C046C0462046FFF74B
:1002C0003DFF10BD01491820ABBEFEE7260002002D
:1002D0007047FFE7FEE7FFE7FEE700F003F8FFF7F0
:1002E000EFFE00000149024808607047000000204E
:1002F00040787D0180B584B0002003900F490291C1
:100300000190012080070090FFE702980C49884285
:1003100001D8FFE70EE001984000401C01900198D1
:100320001F21FFF711FF019101980099086000203B
:100330000290FFE70298401C0290E6E750C30000DD
:100340004FC3000054030000000000200400000020
:080350000401000040787D016A
:04000005000000C136
:00000001FF
